:020000040800F2
:1000000000100020D50800081D0900081D0900087F
:1000100000000000000000000000000000000000E0
:100020000000000000000000000000001D090008A2
:1000300000000000000000001D0900081D09000864
:100040001D090008000000001D0900081D09000826
:100050001D0900081D0900081D0900081D090008E8
:10006000000000001D0900081D0900081D09000806
:100070001D090008210200081D09000800000000F9
:100080001D03000800000000000000001D0900081A
:10009000000000001D0900081D0900081D090008D6
:1000A000000000001D090008000000001D090008F4
:1000B0000000000000000000000000000000000040
:1000C00010B5064C2378002B07D1054B002B02D02E
:1000D000044800E000BF0123237010BD0000002091
:1000E00000000000D0090008044B10B5002B03D01D
:1000F0000349044800E000BF10BDC04600000000F6
:1001000004000020D0090008002243088B4274D369
:1001100003098B425FD3030A8B4244D3030B8B4208
:1001200028D3030C8B420DD3FF22090212BA030C11
:100130008B4202D31212090265D0030B8B4219D3F2
:1001400000E0090AC30B8B4201D3CB03C01A524112
:10015000830B8B4201D38B03C01A5241430B8B425A
:1001600001D34B03C01A5241030B8B4201D30B0343
:10017000C01A5241C30A8B4201D3CB02C01A52416A
:10018000830A8B4201D38B02C01A5241430A8B422D
:1001900001D34B02C01A5241030A8B4201D30B0216
:1001A000C01A5241CDD2C3098B4201D3CB01C01A30
:1001B000524183098B4201D38B01C01A524143093A
:1001C0008B4201D34B01C01A524103098B4201D328
:1001D0000B01C01A5241C3088B4201D3CB00C01A95
:1001E000524183088B4201D38B00C01A524143080D
:1001F0008B4201D34B00C01A5241411A00D2014632
:10020000524110467047FFE701B5002000F006F8A4
:1002100002BDC0460029F7D076E770477047C04658
:100220000222044B52421A61034A136801331360DD
:100230007047C046002C01402000002080222F483B
:100240009202436970B5134343619023DB0519683B
:100250002B4CC3252140196080211C68890421434F
:100260001960596A80240A435A62802382691B01FB
:1002700013438361234BE4019A68AD0022439A60E3
:1002800020229968204E0A439A60052299680A4301
:100290009A60C022996892010A4301219A60DA6843
:1002A0000A43DA601A680A431A608023174A9B01DE
:1002B0001360535933401C4302235451C4692343F0
:1002C000C361134B134898621348D86218201C6806
:1002D0002043186010205C6820435860D8680843A9
:1002E000D8601868014319608023C421FF205B0295
:1002F0001360890053588343535070BD001002406F
:10030000FFFFFFFC002C0140FF00FFFF00E100E0C9
:10031000000400404FC30000E70300000121022059
:100320000E4B30B51A6840428A431A600C4A10617D
:10033000586A0C4A1060002058621C680C431C600C
:10034000094C236815681B042B4313601368DB00FA
:100350001360064B2060197030BDC046002C014070
:100360000004004024000020200000201C00002089
:100370009023DB051A6813490A401A6004221968A1
:100380001143196080219869890201439961102104
:1003900018680143196099690A439A6140221968F3
:1003A0001143196008219869014399611969196815
:1003B00000200A431A608022996912030A439A6155
:1003C0007047C046FF3F03FF8023194A9B025169D3
:1003D00018480B4353619023DB05196801401960ED
:1003E00080211868890001431960C021986889003C
:1003F000014399608021186AC90201431962802370
:10040000D1695B000B43D36131220B4B9A623232CC
:10041000DA625E3A5A6399696B320A439A61012241
:10042000196A1143196219680A431A607047C04675
:1004300000100240FFFCFFFF0020004080212D4BF8
:1004400089025A6910B50A435A619022D205106890
:10045000294C20401060106808431060C020946848
:1004600080022043906080221868520202431A6082
:100470001A680A42FCD01A6820490A401A60802291
:10048000920419681142FCD18022596852020A4331
:100490000F215A60DA6A8A43DA620422D96A0A436F
:1004A000DA625A6816490A405A60802259689203F3
:1004B0000A435A608022196852040A431A60802253
:1004C000920419681142FCD001220E4908680243C7
:1004D0000A60022259680A435A6008225968114288
:1004E000FCD08722596812060A435A6059680A43A9
:1004F0005A6010BD00100240FFFFFCFFFFFFFFFE2F
:10050000FFFFC3FF0020024080230D4A9B02516978
:100510000B43536190238022DB051968D2000A4304
:100520001A608022196852010A431A6020229969D0
:100530000A439A6180229969D2030A439A617047FB
:100540000010024080230D4A9B0251690B43536106
:1005500090238022DB051968D2000A431A608022AA
:10056000196852010A431A608022996992030A436A
:100570009A61402299690A439A61704700100240CB
:100580009023DB051B6910B59B0602D5FFF7DAFF48
:1005900010BDFFF7B9FFFBE784B00190019A074B4C
:1005A0005343019300230393039A019B9A4201D37F
:1005B00004B07047039B0133F5E7C0468813000081
:1005C000052384B00190019A5343019300230393C0
:1005D000039A019B9A4201D304B07047039B0133F5
:1005E000F5E790238022DB051968D2030A4370B532
:1005F0001A60010748D58022996912010A439A615D
:1006000090238022DB05196852030A431A604107D0
:100610003ED580229969D2000A439A6190238022B4
:10062000DB051968D2020A431A60810734D580229B
:10063000996992000A439A6190238022DB05196828
:10064000D2010A431A60C1072AD5802299699024F1
:1006500040250A43E4059A612368FA202B4323606E
:100660000823A26940001343A361FFF7A9FF236891
:10067000FA201D4380232560A2691B031343A36155
:100680004000FFF79DFF70BD802299691205B5E714
:1006900080229969D204BFE7802299699204C9E750
:1006A000802299691204D2E790230422DB0519689D
:1006B00010B50A431A60022299690A439A6110220E
:1006C00019680A431A6080229969D2020A439A6122
:1006D000402219680A431A608022996912030A436A
:1006E0009A61FFF77EFF10BD10B504000009FFF707
:1006F000DBFF0F202040FFF7D7FF10BD10B504002F
:1007000020780134FFF7F0FF2378002BF8D110BDDB
:1007100090230422DB05196810B50A431A60802271
:10072000996992020A439A61102219680A431A6071
:1007300080229969D2020A439A61402219680A43C9
:100740001A608022996912030A439A61FFF749FFF0
:1007500010BD10B50020FFF7DBFF0120FFF7D8FF29
:1007600010BD800110B54418082023111843C0B2F1
:10077000FFF7CEFF0F202040FFF7CAFF10BD00009B
:100780008022344992024B6910B513434B61902388
:100790000421DB0518680143196099690F200A4399
:1007A0009A61102219680A431A6080229969D2025C
:1007B0000A439A61402219680A431A6080229969A3
:1007C00012030A439A61FFF7E7FE0320FFF7A0FF39
:1007D0000520FFF7E1FE0320FFF79AFF6420FFF7F3
:1007E000EFFE0320FFF794FF0220FFF791FFFFF7D2
:1007F000BFFD0028FBD10230FFF78AFF0820FFF77A
:1008000087FFFFF7B5FD0028FBD1FFF781FF082028
:10081000FFF77EFFFFF7ACFD0028FBD1FFF778FF65
:100820000120FFF775FFFFF7A3FD0028FBD1FFF7BD
:100830006FFF0620FFF76CFFFFF79AFD0028FBD142
:10084000FFF766FF0C20FFF763FFFFF791FD00281D
:10085000FBD110BD00100240F8B5FFF7EFFDFFF728
:10086000B3FDFFF78DFF1548FFF748FF0025FFF7A1
:10087000E5FC0124124F3B78002BFCD0FFF780FEF3
:10088000104E114B31681A68914210D032681A60CC
:10089000FFF75FFF00210800FFF763FF30680B4E92
:1008A0000A22310000F053F83000FFF727FF084A12
:1008B0003D70136823431360DCE7C046E809000875
:1008C0001C000020240000203C0000202800002004
:1008D000000400400B4885460B480C490C4A002395
:1008E00002E0D458C4500433C4188C42F9D3094AE6
:1008F000094C002301E013600432A242FBD3FFF74E
:10090000ABFFFEE7001000200000002000000020E8
:10091000200A00080000002040000020FEE7931E8F
:1009200010B50C00222B04D900231C000B702000F2
:1009300010BD0A2A09D1002807DA2D230B700121E6
:100940004042611800F008F8F1E70021F9E710B51E
:10095000FFF7E5FF10BD0000F0B517008DB02522B0
:1009600006000D0002A8144900F028F802AABB1ED8
:1009700000240192222B05D92C70250028000DB0EF
:10098000F0BD140030003900FFF744FC84460198A4
:10099000621CAB18415C5E1E31706646002EF0D1C1
:1009A0001E702B005A1B9442E8DD1A78295D1970DD
:1009B0002A550133013CF5E7F3090008002310B57F
:1009C0009A4200D110BDCC5CC4540133F8E700005A
:1009D000F8B5C046F8BC08BC9E467047F8B5C0469E
:0809E000F8BC08BC9E467047FC
:1009E8006F7A666F726573746572003031323334B2
:1009F80035363738396162636465666768696A6B7A
:100A08006C6D6E6F707172737475767778797A0021
:040A1800E9000008E9
:040A1C00C10000080D
:04000005080008D512
:00000001FF
