:020000040800F2
:1000000000100020850B0008CD0B0008CD0B000868
:1000100000000000000000000000000000000000E0
:10002000000000000000000000000000CD0B0008F0
:100030000000000000000000CD0B0008CD0B000800
:10004000CD0B000800000000CD0B0008CD0B000810
:10005000CD0B0008CD0B0008CD0B0008CD0B000820
:1000600000000000CD0B0008CD0B0008CD0B0008F0
:10007000CD0B0008CD0B0008CD0B000800000000E0
:10008000CD0B00080000000000000000CD0B0008B0
:1000900000000000CD0B000859030008CD0B00083C
:1000A00000000000CD0B000800000000CD0B000890
:1000B0000000000000000000000000000000000040
:1000C00010B5064C2378002B07D1054B002B02D02E
:1000D000044800E000BF0123237010BD0000002091
:1000E00000000000800C0008044B10B5002B03D06A
:1000F0000349044800E000BF10BDC04600000000F6
:1001000004000020800C0008002243088B4274D3B6
:1001100003098B425FD3030A8B4244D3030B8B4208
:1001200028D3030C8B420DD3FF22090212BA030C11
:100130008B4202D31212090265D0030B8B4219D3F2
:1001400000E0090AC30B8B4201D3CB03C01A524112
:10015000830B8B4201D38B03C01A5241430B8B425A
:1001600001D34B03C01A5241030B8B4201D30B0343
:10017000C01A5241C30A8B4201D3CB02C01A52416A
:10018000830A8B4201D38B02C01A5241430A8B422D
:1001900001D34B02C01A5241030A8B4201D30B0216
:1001A000C01A5241CDD2C3098B4201D3CB01C01A30
:1001B000524183098B4201D38B01C01A524143093A
:1001C0008B4201D34B01C01A524103098B4201D328
:1001D0000B01C01A5241C3088B4201D3CB00C01A95
:1001E000524183088B4201D38B00C01A524143080D
:1001F0008B4201D34B00C01A5241411A00D2014632
:10020000524110467047FFE701B5002000F006F8A4
:1002100002BDC0460029F7D076E770477047C04658
:1002200002224349F0B5CB6980241343CB61414B93
:1002300005329868A402024301209A601A683E4E73
:1002400002431A604B6923434B619023DB051A6814
:1002500032401A6080221E68920432431A605A6A41
:10026000364E22435A621A6832401A6080221E6853
:100270001203324320261A605A6A32435A6280229D
:100280008F6912013A438A612D4A9768BC468027DC
:100290006546FF012F439760C0279568BF012F4334
:1002A0009760802795697F002F43976105279568A0
:1002B0002F439760602795682F4397605768022502
:1002C0003E4356601668064316604A6914434C6103
:1002D0001A681C4C22401A6080221C6812021443C7
:1002E0001C60A0241E6AE40534431C6280238C69D0
:1002F000DB0223438B61144B144999621449D96280
:10030000C739596370219C692143996103211C6A93
:1003100021431962596C0A435A64DA681543DD6057
:100320001A681043802218600A4BD2031A60F0BD8D
:100330000010024000040040FFFFFFFCFFFFF3FF3E
:10034000002C0140FF3FFFFF004801404FC3000069
:10035000AF04000000E100E00221094A13698B4369
:1003600013610849084A486A536A1B040343074853
:10037000036000234B6253620122054B1A707047E1
:1003800000480140002C01400004004024000020EF
:100390001C00002013B51849184A0B6813400B6065
:1003A00090230422DB0518681043186080209C69A4
:1003B00080022043986110201C68204318609869CF
:1003C00002439A61402218681043186008209C6913
:1003D000204398618020096901406846C17119680D
:1003E00007300A431A608022996912030A439A610E
:1003F0000078C0B216BDC04600040048FF00FFFFF1
:100400008023194A9B02516918480B43536190237A
:10041000DB051968014019608021186889000143D3
:100420001960C02198688900014399608021186A89
:10043000C902014319628023D1695B000B43D36178
:1004400031220B4B9A623232DA625D3A5A63996911
:100450006A320A439A610122196A114319621968C2
:100460000A431A607047C04600100240FFFCFFFFBD
:10047000002000408022204B520219680A431A6073
:100480008022920219681142FCD01A681B490A4066
:100490001A608022920419681142FCD180225968A6
:1004A00052020A430F215A60DA6A8A43DA6204224E
:1004B000D96A0A43DA625A6811490A405A608022AE
:1004C000596892030A435A608022196852040A4309
:1004D0001A608022920419681142FCD00122094955
:1004E000086802430A60022259680A435A600822D7
:1004F00059681142FCD0704700100240FFFFFFFE18
:10050000FFFFC3FF002002408023074ADB0251693E
:100510000B430C215361054B1A688A431A601A6811
:1005200009398A431A6070470010024000040048ED
:10053000002384B001900393039A019B9A4201D354
:1005400004B07047039B0133F5E7000070B50C253C
:100550000326194C0220FFF7EBFF23680220AB4370
:100560002360FFF7E5FF23680220B3432360FFF712
:10057000DFFF2368AB432360042322680A3D134353
:100580002360636828002B436360A36A2B43A36244
:10059000FFF7CEFF23682800B343236001232268BE
:1005A0001A43226062681A436260A26A1343A3621C
:1005B000FFF7BEFF70BDC0460004004810B5022022
:1005C000FFF7B6FF0322074C022023689343236002
:1005D000FFF7AEFF0C222368022093432360FFF74E
:1005E000A7FF10BD000400480823F7B50600022746
:1005F00001933800FFF79CFF73B2334C002B53DAA2
:100600000C2223689343236003253800FFF790FFF3
:1006100023683800AB432360FFF78AFF2368AB43AE
:10062000023DAE4023602368F6B22B43236063682B
:100630002B436360A36A2B43A362019B013BDBB2A4
:100640000193002BD5D10C2603270220FFF770FF62
:1006500023680220B3432360FFF76AFF2368022068
:10066000BB432360FFF764FF23680220BB43236082
:1006700023682B43236063682B436360A36A1D4395
:10068000A562FFF755FF23680220B34323600423CC
:10069000226813432360636803436360A36A0343D0
:1006A000A362FFF745FFF7BD0C2223689343236045
:1006B000042322681343236063683B436360A36A97
:1006C0003B43A362A0E7C0460004004873B56B46F5
:1006D0000C00DE1D9D1DD8712A70FFF737FF3078A2
:1006E0004000C0B2FFF780FF23001A1B2978D2B266
:1006F000914202D8FFF762FF73BD18785E1CC0B24A
:10070000FFF772FF3300F0E700B589B0FFF7FCFE9A
:10071000FD236A465B421380694602226020FFF790
:10072000D5FF95236A466946138060200222FFF7B1
:10073000CDFF6A461C4B6946138060200222FFF7FA
:10074000C5FF1A4B6A460093194B69460193E22391
:10075000602013720922FFF7B9FF164B6A46009317
:10076000154B694601930023602013720922FFF79D
:10077000ADFF6A46114B6946138060200222FFF7E5
:10078000A5FF6A460E4B6946138060200222FFF7E0
:100790009DFF6A460B4B6946138060200222FFF7DB
:1007A00095FF09B000BDC04610CFFFFF1AFFFF0044
:1007B0000A62FD0D2AFFFF000900F000B1200000D1
:1007C000104F000003FEFFFF84B00190019A074B19
:1007D0005343019300230393039A019B9A4201D34D
:1007E00004B07047039B0133F5E7C046881300004F
:1007F000052384B00190019A53430193002303938E
:10080000039A019B9A4201D304B07047039B0133C2
:10081000F5E7000080222B4BD201196870B50A431E
:100820001A6001073DD5802299690A439A618022A6
:10083000196852010A431A60410736D54022996966
:100840000A439A6180221968D2000A431A6081071C
:100850002FD5202299690A439A6180221968520093
:100860000A431A60C10728D51022996990244025AF
:100870000A43E4059A61FA20FFF7BAFF23683220A1
:100880002B4323600823A2691343A361FFF7B0FF42
:1008900023681D4380232560A2691B031343A361C2
:1008A00070BD802299691204BFE780229969D20342
:1008B000C6E7802299699203CDE7802299695203A5
:1008C000D4E7C0460004004890230422DB051968E1
:1008D00010B50A431A60022299690A439A611022EC
:1008E00019680A431A6080229969D2020A439A6100
:1008F000402219680A431A608022996912030A4348
:100900009A61FFF787FF10BD10B504000009FFF7DB
:10091000DBFF0F202040FFF7D7FF10BD10B504000C
:1009200020780134FFF7F0FF2378002BF8D110BDB9
:1009300090230422DB05196810B50A431A6080224F
:10094000996992020A439A61102219680A431A604F
:1009500080229969D2020A439A61402219680A43A7
:100960001A608022996912030A439A61FFF752FFC5
:1009700010BD10B50020FFF7DBFF0120FFF7D8FF07
:1009800010BD800110B54418082023111843C0B2CF
:10099000FFF7CEFF0F202040FFF7CAFF10BD000079
:1009A0008021364B89025A6910B50A435A61802268
:1009B0005869D2021043586190230420DB051C685B
:1009C0002043186098690143996110211868014318
:1009D000196099690F200A439A61402219680A43F5
:1009E0001A608022996912030A439A61FFF7ECFEAC
:1009F0000320FFF79DFF0520FFF7E6FE0320FFF72A
:100A000097FF6420FFF7F4FE0320FFF791FF022019
:100A1000FFF78EFFFFF7BEFC0028FBD10230FFF787
:100A200087FF0820FFF784FFFFF7B4FC0028FBD105
:100A3000FFF77EFF0820FFF77BFFFFF7ABFC0028E6
:100A4000FBD1FFF775FF0120FFF772FFFFF7A2FC54
:100A50000028FBD1FFF76CFF0620FFF769FFFFF7C7
:100A600099FC0028FBD1FFF763FF0C20FFF760FF24
:100A7000FFF790FC0028FBD110BDC04600100240DB
:100A8000F7B5FFF7F7FCFFF7BBFCFFF789FF33482B
:100A9000FFF744FF87204000FFF796FE0127FFF78E
:100AA000BFFBFFF731FE2E4B1B78002BFBD06B46B4
:100AB000DA1D002303202B4C2B4D27701370117867
:100AC000AB681B0B034099423FD3284E2278336812
:100AD00027495343274A336030681368984203D14B
:100AE00008782378984223D02378DBB20B703368E0
:100AF0001360FFF73EFF00210800FFF742FF306858
:100B00001D4E0A22310000F07AF83000FFF706FF90
:100B100020780A223100C0B200F071F800213800BC
:100B2000FFF72FFF1548FFF7F9FE3000FFF7F6FE3D
:100B3000AB68134A1340AB608023AA685B01134380
:100B40000022AB60064B1A70ADE723785B00DBB286
:100B5000237013780133DBB21370B0E7980C0008F0
:100B60001C00002020000020002C01402400002058
:100B7000210000203C00002028000020A30C0008D9
:100B8000FFCFFFFF0B4885460B480C490C4A00235A
:100B900002E0D458C4500433C4188C42F9D3094A33
:100BA000094C002301E013600432A242FBD3FFF79B
:100BB00067FFFEE70010002000000020000000207A
:100BC000D80C00080000002040000020FEE7931E23
:100BD00010B50C00222B04D900231C000B70200040
:100BE00010BD0A2A09D1002807DA2D230B70012134
:100BF0004042611800F008F8F1E70021F9E710B56C
:100C0000FFF7E5FF10BD0000F0B517008DB02522FD
:100C100006000D0002A8144900F028F802AABB1E25
:100C200000240192222B05D92C70250028000DB03C
:100C3000F0BD140030003900FFF7ECFA844601984B
:100C4000621CAB18415C5E1E31706646002EF0D10E
:100C50001E702B005A1B9442E8DD1A78295D19702A
:100C60002A550133013CF5E7A90C0008002310B513
:100C70009A4200D110BDCC5CC4540133F8E70000A7
:100C8000F8B5C046F8BC08BC9E467047F8B5C046EB
:080C9000F8BC08BC9E46704749
:100C98006F7A666F7265737465720065747073201D
:100CA8000030313233343536373839616263646540
:100CB800666768696A6B6C6D6E6F70717273747554
:080CC800767778797A000000CC
:040CD000E90000082F
:040CD400C100000853
:0400000508000B855F
:00000001FF
